{"abi":[{"type":"function","name":"accessGrants","inputs":[{"name":"","type":"uint256","internalType":"uint256"},{"name":"","type":"address","internalType":"address"}],"outputs":[{"name":"recordId","type":"uint256","internalType":"uint256"},{"name":"grantee","type":"address","internalType":"address"},{"name":"expiresAt","type":"uint256","internalType":"uint256"},{"name":"isActive","type":"bool","internalType":"bool"}],"stateMutability":"view"},{"type":"function","name":"createRecord","inputs":[{"name":"_ipfsHash","type":"string","internalType":"string"},{"name":"_recordType","type":"string","internalType":"string"},{"name":"_timestamp","type":"uint256","internalType":"uint256"}],"outputs":[{"name":"","type":"uint256","internalType":"uint256"}],"stateMutability":"nonpayable"},{"type":"function","name":"deactivateRecord","inputs":[{"name":"_recordId","type":"uint256","internalType":"uint256"}],"outputs":[],"stateMutability":"nonpayable"},{"type":"function","name":"getPatientRecords","inputs":[{"name":"_patient","type":"address","internalType":"address"}],"outputs":[{"name":"","type":"uint256[]","internalType":"uint256[]"}],"stateMutability":"view"},{"type":"function","name":"getRecord","inputs":[{"name":"_recordId","type":"uint256","internalType":"uint256"}],"outputs":[{"name":"id","type":"uint256","internalType":"uint256"},{"name":"patient","type":"address","internalType":"address"},{"name":"ipfsHash","type":"string","internalType":"string"},{"name":"recordType","type":"string","internalType":"string"},{"name":"timestamp","type":"uint256","internalType":"uint256"},{"name":"isActive","type":"bool","internalType":"bool"}],"stateMutability":"view"},{"type":"function","name":"grantAccess","inputs":[{"name":"_recordId","type":"uint256","internalType":"uint256"},{"name":"_grantee","type":"address","internalType":"address"},{"name":"_expiresAt","type":"uint256","internalType":"uint256"}],"outputs":[],"stateMutability":"nonpayable"},{"type":"function","name":"hasAccess","inputs":[{"name":"_recordId","type":"uint256","internalType":"uint256"},{"name":"_user","type":"address","internalType":"address"}],"outputs":[{"name":"","type":"bool","internalType":"bool"}],"stateMutability":"view"},{"type":"function","name":"patientRecords","inputs":[{"name":"","type":"address","internalType":"address"},{"name":"","type":"uint256","internalType":"uint256"}],"outputs":[{"name":"","type":"uint256","internalType":"uint256"}],"stateMutability":"view"},{"type":"function","name":"recordCount","inputs":[],"outputs":[{"name":"","type":"uint256","internalType":"uint256"}],"stateMutability":"view"},{"type":"function","name":"records","inputs":[{"name":"","type":"uint256","internalType":"uint256"}],"outputs":[{"name":"id","type":"uint256","internalType":"uint256"},{"name":"patient","type":"address","internalType":"address"},{"name":"ipfsHash","type":"string","internalType":"string"},{"name":"recordType","type":"string","internalType":"string"},{"name":"timestamp","type":"uint256","internalType":"uint256"},{"name":"isActive","type":"bool","internalType":"bool"}],"stateMutability":"view"},{"type":"function","name":"revokeAccess","inputs":[{"name":"_recordId","type":"uint256","internalType":"uint256"},{"name":"_grantee","type":"address","internalType":"address"}],"outputs":[],"stateMutability":"nonpayable"},{"type":"event","name":"AccessGranted","inputs":[{"name":"recordId","type":"uint256","indexed":true,"internalType":"uint256"},{"name":"patient","type":"address","indexed":true,"internalType":"address"},{"name":"grantee","type":"address","indexed":true,"internalType":"address"},{"name":"expiresAt","type":"uint256","indexed":false,"internalType":"uint256"}],"anonymous":false},{"type":"event","name":"AccessRevoked","inputs":[{"name":"recordId","type":"uint256","indexed":true,"internalType":"uint256"},{"name":"patient","type":"address","indexed":true,"internalType":"address"},{"name":"grantee","type":"address","indexed":true,"internalType":"address"}],"anonymous":false},{"type":"event","name":"RecordCreated","inputs":[{"name":"recordId","type":"uint256","indexed":true,"internalType":"uint256"},{"name":"patient","type":"address","indexed":true,"internalType":"address"},{"name":"ipfsHash","type":"string","indexed":false,"internalType":"string"},{"name":"recordType","type":"string","indexed":false,"internalType":"string"},{"name":"timestamp","type":"uint256","indexed":false,"internalType":"uint256"}],"anonymous":false}],"bytecode":{"object":"0x6080604052348015600e575f5ffd5b50611c238061001c5f395ff3fe608060405234801561000f575f5ffd5b50600436106100a7575f3560e01c8063900407bc1161006f578063900407bc1461019157806394f0df61146101af578063ced14198146101df578063d603b2841461020f578063d9a5ec1b1461022b578063fb09987114610247576100a7565b806303e9e609146100ab57806318bd4847146100e057806319c1833f14610110578063344610671461012c57806348afcd6514610161575b5f5ffd5b6100c560048036038101906100c09190611106565b61027a565b6040516100d796959493929190611209565b60405180910390f35b6100fa60048036038101906100f591906112a0565b610475565b6040516101079190611382565b60405180910390f35b61012a60048036038101906101259190611106565b610508565b005b61014660048036038101906101419190611106565b6105d9565b60405161015896959493929190611209565b60405180910390f35b61017b600480360381019061017691906114ce565b610748565b6040516101889190611556565b60405180910390f35b610199610a2f565b6040516101a69190611556565b60405180910390f35b6101c960048036038101906101c4919061156f565b610a34565b6040516101d69190611556565b60405180910390f35b6101f960048036038101906101f491906115ad565b610a5f565b60405161020691906115eb565b60405180910390f35b61022960048036038101906102249190611604565b610b59565b005b610245600480360381019061024091906115ad565b610e09565b005b610261600480360381019061025c91906115ad565b611060565b6040516102719493929190611654565b60405180910390f35b5f5f6060805f5f5f60015f8981526020019081526020015f206040518060c00160405290815f8201548152602001600182015f9054906101000a900473ffffffffffffffffffffffffffffffffffffffff1673ffffffffffffffffffffffffffffffffffffffff1673ffffffffffffffffffffffffffffffffffffffff16815260200160028201805461030c906116c4565b80601f0160208091040260200160405190810160405280929190818152602001828054610338906116c4565b80156103835780601f1061035a57610100808354040283529160200191610383565b820191905f5260205f20905b81548152906001019060200180831161036657829003601f168201915b5050505050815260200160038201805461039c906116c4565b80601f01602080910402602001604051908101604052809291908181526020018280546103c8906116c4565b80156104135780601f106103ea57610100808354040283529160200191610413565b820191905f5260205f20905b8154815290600101906020018083116103f657829003601f168201915b5050505050815260200160048201548152602001600582015f9054906101000a900460ff1615151515815250509050805f015181602001518260400151836060015184608001518560a001519650965096509650965096505091939550919395565b606060035f8373ffffffffffffffffffffffffffffffffffffffff1673ffffffffffffffffffffffffffffffffffffffff1681526020019081526020015f208054806020026020016040519081016040528092919081815260200182805480156104fc57602002820191905f5260205f20905b8154815260200190600101908083116104e8575b50505050509050919050565b8060015f8281526020019081526020015f206001015f9054906101000a900473ffffffffffffffffffffffffffffffffffffffff1673ffffffffffffffffffffffffffffffffffffffff163373ffffffffffffffffffffffffffffffffffffffff16146105aa576040517f08c379a00000000000000000000000000000000000000000000000000000000081526004016105a19061173e565b60405180910390fd5b5f60015f8481526020019081526020015f206005015f6101000a81548160ff0219169083151502179055505050565b6001602052805f5260405f205f91509050805f015490806001015f9054906101000a900473ffffffffffffffffffffffffffffffffffffffff1690806002018054610623906116c4565b80601f016020809104026020016040519081016040528092919081815260200182805461064f906116c4565b801561069a5780601f106106715761010080835404028352916020019161069a565b820191905f5260205f20905b81548152906001019060200180831161067d57829003601f168201915b5050505050908060030180546106af906116c4565b80601f01602080910402602001604051908101604052809291908181526020018280546106db906116c4565b80156107265780601f106106fd57610100808354040283529160200191610726565b820191905f5260205f20905b81548152906001019060200180831161070957829003601f168201915b505050505090806004015490806005015f9054906101000a900460ff16905086565b5f5f5f81548092919061075a90611789565b91905055505f5f5490506040518060c001604052808281526020013373ffffffffffffffffffffffffffffffffffffffff1681526020018681526020018581526020018481526020016001151581525060015f8381526020019081526020015f205f820151815f01556020820151816001015f6101000a81548173ffffffffffffffffffffffffffffffffffffffff021916908373ffffffffffffffffffffffffffffffffffffffff160217905550604082015181600201908161081e9190611970565b5060608201518160030190816108349190611970565b506080820151816004015560a0820151816005015f6101000a81548160ff02191690831515021790555090505060035f3373ffffffffffffffffffffffffffffffffffffffff1673ffffffffffffffffffffffffffffffffffffffff1681526020019081526020015f2081908060018154018082558091505060019003905f5260205f20015f909190919091505560405180608001604052808281526020013373ffffffffffffffffffffffffffffffffffffffff1681526020016301e13380426108ff9190611a3f565b81526020016001151581525060025f8381526020019081526020015f205f3373ffffffffffffffffffffffffffffffffffffffff1673ffffffffffffffffffffffffffffffffffffffff1681526020019081526020015f205f820151815f01556020820151816001015f6101000a81548173ffffffffffffffffffffffffffffffffffffffff021916908373ffffffffffffffffffffffffffffffffffffffff160217905550604082015181600201556060820151816003015f6101000a81548160ff0219169083151502179055509050503373ffffffffffffffffffffffffffffffffffffffff16817f9bc4e98b788bc65e4e3bf741cc87edaa439a12fa696ad26b283053a0f014b3f9878787604051610a1c93929190611a72565b60405180910390a3809150509392505050565b5f5481565b6003602052815f5260405f208181548110610a4d575f80fd5b905f5260205f20015f91509150505481565b5f5f60025f8581526020019081526020015f205f8473ffffffffffffffffffffffffffffffffffffffff1673ffffffffffffffffffffffffffffffffffffffff1681526020019081526020015f206040518060800160405290815f8201548152602001600182015f9054906101000a900473ffffffffffffffffffffffffffffffffffffffff1673ffffffffffffffffffffffffffffffffffffffff1673ffffffffffffffffffffffffffffffffffffffff16815260200160028201548152602001600382015f9054906101000a900460ff161515151581525050905080606001518015610b505750428160400151115b91505092915050565b8260015f8281526020019081526020015f206001015f9054906101000a900473ffffffffffffffffffffffffffffffffffffffff1673ffffffffffffffffffffffffffffffffffffffff163373ffffffffffffffffffffffffffffffffffffffff1614610bfb576040517f08c379a0000000000000000000000000000000000000000000000000000000008152600401610bf29061173e565b60405180910390fd5b60015f8581526020019081526020015f206005015f9054906101000a900460ff16610c5b576040517f08c379a0000000000000000000000000000000000000000000000000000000008152600401610c5290611aff565b60405180910390fd5b428211610c9d576040517f08c379a0000000000000000000000000000000000000000000000000000000008152600401610c9490611b67565b60405180910390fd5b60405180608001604052808581526020018473ffffffffffffffffffffffffffffffffffffffff1681526020018381526020016001151581525060025f8681526020019081526020015f205f8573ffffffffffffffffffffffffffffffffffffffff1673ffffffffffffffffffffffffffffffffffffffff1681526020019081526020015f205f820151815f01556020820151816001015f6101000a81548173ffffffffffffffffffffffffffffffffffffffff021916908373ffffffffffffffffffffffffffffffffffffffff160217905550604082015181600201556060820151816003015f6101000a81548160ff0219169083151502179055509050508273ffffffffffffffffffffffffffffffffffffffff163373ffffffffffffffffffffffffffffffffffffffff16857f9ffcf664651d52310aeb78c0f8382ca5078d2de7d3cf618cb5ce6e5cabf0099285604051610dfb9190611556565b60405180910390a450505050565b8160015f8281526020019081526020015f206001015f9054906101000a900473ffffffffffffffffffffffffffffffffffffffff1673ffffffffffffffffffffffffffffffffffffffff163373ffffffffffffffffffffffffffffffffffffffff1614610eab576040517f08c379a0000000000000000000000000000000000000000000000000000000008152600401610ea29061173e565b60405180910390fd5b60025f8481526020019081526020015f205f8373ffffffffffffffffffffffffffffffffffffffff1673ffffffffffffffffffffffffffffffffffffffff1681526020019081526020015f206003015f9054906101000a900460ff16610f46576040517f08c379a0000000000000000000000000000000000000000000000000000000008152600401610f3d90611bcf565b60405180910390fd5b5f60025f8581526020019081526020015f205f8473ffffffffffffffffffffffffffffffffffffffff1673ffffffffffffffffffffffffffffffffffffffff1681526020019081526020015f206003015f6101000a81548160ff0219169083151502179055504260025f8581526020019081526020015f205f8473ffffffffffffffffffffffffffffffffffffffff1673ffffffffffffffffffffffffffffffffffffffff1681526020019081526020015f20600201819055508173ffffffffffffffffffffffffffffffffffffffff163373ffffffffffffffffffffffffffffffffffffffff16847f260547d4038414ef72f081dcde91825693dff9bc433178f3e92ad36e0cd2275060405160405180910390a4505050565b6002602052815f5260405f20602052805f5260405f205f9150915050805f015490806001015f9054906101000a900473ffffffffffffffffffffffffffffffffffffffff1690806002015490806003015f9054906101000a900460ff16905084565b5f604051905090565b5f5ffd5b5f5ffd5b5f819050919050565b6110e5816110d3565b81146110ef575f5ffd5b50565b5f81359050611100816110dc565b92915050565b5f6020828403121561111b5761111a6110cb565b5b5f611128848285016110f2565b91505092915050565b61113a816110d3565b82525050565b5f73ffffffffffffffffffffffffffffffffffffffff82169050919050565b5f61116982611140565b9050919050565b6111798161115f565b82525050565b5f81519050919050565b5f82825260208201905092915050565b8281835e5f83830152505050565b5f601f19601f8301169050919050565b5f6111c18261117f565b6111cb8185611189565b93506111db818560208601611199565b6111e4816111a7565b840191505092915050565b5f8115159050919050565b611203816111ef565b82525050565b5f60c08201905061121c5f830189611131565b6112296020830188611170565b818103604083015261123b81876111b7565b9050818103606083015261124f81866111b7565b905061125e6080830185611131565b61126b60a08301846111fa565b979650505050505050565b61127f8161115f565b8114611289575f5ffd5b50565b5f8135905061129a81611276565b92915050565b5f602082840312156112b5576112b46110cb565b5b5f6112c28482850161128c565b91505092915050565b5f81519050919050565b5f82825260208201905092915050565b5f819050602082019050919050565b6112fd816110d3565b82525050565b5f61130e83836112f4565b60208301905092915050565b5f602082019050919050565b5f611330826112cb565b61133a81856112d5565b9350611345836112e5565b805f5b8381101561137557815161135c8882611303565b97506113678361131a565b925050600181019050611348565b5085935050505092915050565b5f6020820190508181035f83015261139a8184611326565b905092915050565b5f5ffd5b5f5ffd5b7f4e487b71000000000000000000000000000000000000000000000000000000005f52604160045260245ffd5b6113e0826111a7565b810181811067ffffffffffffffff821117156113ff576113fe6113aa565b5b80604052505050565b5f6114116110c2565b905061141d82826113d7565b919050565b5f67ffffffffffffffff82111561143c5761143b6113aa565b5b611445826111a7565b9050602081019050919050565b828183375f83830152505050565b5f61147261146d84611422565b611408565b90508281526020810184848401111561148e5761148d6113a6565b5b611499848285611452565b509392505050565b5f82601f8301126114b5576114b46113a2565b5b81356114c5848260208601611460565b91505092915050565b5f5f5f606084860312156114e5576114e46110cb565b5b5f84013567ffffffffffffffff811115611502576115016110cf565b5b61150e868287016114a1565b935050602084013567ffffffffffffffff81111561152f5761152e6110cf565b5b61153b868287016114a1565b925050604061154c868287016110f2565b9150509250925092565b5f6020820190506115695f830184611131565b92915050565b5f5f60408385031215611585576115846110cb565b5b5f6115928582860161128c565b92505060206115a3858286016110f2565b9150509250929050565b5f5f604083850312156115c3576115c26110cb565b5b5f6115d0858286016110f2565b92505060206115e18582860161128c565b9150509250929050565b5f6020820190506115fe5f8301846111fa565b92915050565b5f5f5f6060848603121561161b5761161a6110cb565b5b5f611628868287016110f2565b93505060206116398682870161128c565b925050604061164a868287016110f2565b9150509250925092565b5f6080820190506116675f830187611131565b6116746020830186611170565b6116816040830185611131565b61168e60608301846111fa565b95945050505050565b7f4e487b71000000000000000000000000000000000000000000000000000000005f52602260045260245ffd5b5f60028204905060018216806116db57607f821691505b6020821081036116ee576116ed611697565b5b50919050565b7f4e6f7420617574686f72697a65640000000000000000000000000000000000005f82015250565b5f611728600e83611189565b9150611733826116f4565b602082019050919050565b5f6020820190508181035f8301526117558161171c565b9050919050565b7f4e487b71000000000000000000000000000000000000000000000000000000005f52601160045260245ffd5b5f611793826110d3565b91507fffffffffffffffffffffffffffffffffffffffffffffffffffffffffffffffff82036117c5576117c461175c565b5b600182019050919050565b5f819050815f5260205f209050919050565b5f6020601f8301049050919050565b5f82821b905092915050565b5f6008830261182c7fffffffffffffffffffffffffffffffffffffffffffffffffffffffffffffffff826117f1565b61183686836117f1565b95508019841693508086168417925050509392505050565b5f819050919050565b5f61187161186c611867846110d3565b61184e565b6110d3565b9050919050565b5f819050919050565b61188a83611857565b61189e61189682611878565b8484546117fd565b825550505050565b5f5f905090565b6118b56118a6565b6118c0818484611881565b505050565b5b818110156118e3576118d85f826118ad565b6001810190506118c6565b5050565b601f821115611928576118f9816117d0565b611902846117e2565b81016020851015611911578190505b61192561191d856117e2565b8301826118c5565b50505b505050565b5f82821c905092915050565b5f6119485f198460080261192d565b1980831691505092915050565b5f6119608383611939565b9150826002028217905092915050565b6119798261117f565b67ffffffffffffffff811115611992576119916113aa565b5b61199c82546116c4565b6119a78282856118e7565b5f60209050601f8311600181146119d8575f84156119c6578287015190505b6119d08582611955565b865550611a37565b601f1984166119e6866117d0565b5f5b82811015611a0d578489015182556001820191506020850194506020810190506119e8565b86831015611a2a5784890151611a26601f891682611939565b8355505b6001600288020188555050505b505050505050565b5f611a49826110d3565b9150611a54836110d3565b9250828201905080821115611a6c57611a6b61175c565b5b92915050565b5f6060820190508181035f830152611a8a81866111b7565b90508181036020830152611a9e81856111b7565b9050611aad6040830184611131565b949350505050565b7f5265636f7264206e6f74206163746976650000000000000000000000000000005f82015250565b5f611ae9601183611189565b9150611af482611ab5565b602082019050919050565b5f6020820190508181035f830152611b1681611add565b9050919050565b7f496e76616c69642065787069726174696f6e00000000000000000000000000005f82015250565b5f611b51601283611189565b9150611b5c82611b1d565b602082019050919050565b5f6020820190508181035f830152611b7e81611b45565b9050919050565b7f4e6f20616374697665206772616e7400000000000000000000000000000000005f82015250565b5f611bb9600f83611189565b9150611bc482611b85565b602082019050919050565b5f6020820190508181035f830152611be681611bad565b905091905056fea264697066735822122060cf3b851a8c31614bd136192a65baaea3d9bd4dc4a3c5145c77dcaafbf8e70e64736f6c634300081e0033","linkReferences":{}},"methodIdentifiers":{"accessGrants(uint256,address)":"fb099871","createRecord(string,string,uint256)":"48afcd65","deactivateRecord(uint256)":"19c1833f","getPatientRecords(address)":"18bd4847","getRecord(uint256)":"03e9e609","grantAccess(uint256,address,uint256)":"d603b284","hasAccess(uint256,address)":"ced14198","patientRecords(address,uint256)":"94f0df61","recordCount()":"900407bc","records(uint256)":"34461067","revokeAccess(uint256,address)":"d9a5ec1b"},"id":0}